{"abi":[{"type":"constructor","inputs":[],"stateMutability":"nonpayable"},{"type":"function","name":"HARD_CAP","inputs":[],"outputs":[{"name":"","type":"uint256","internalType":"uint256"}],"stateMutability":"view"},{"type":"function","name":"MAX_CONTRIBUTION","inputs":[],"outputs":[{"name":"","type":"uint256","internalType":"uint256"}],"stateMutability":"view"},{"type":"function","name":"MIN_CONTRIBUTION","inputs":[],"outputs":[{"name":"","type":"uint256","internalType":"uint256"}],"stateMutability":"view"},{"type":"function","name":"SOFT_CAP","inputs":[],"outputs":[{"name":"","type":"uint256","internalType":"uint256"}],"stateMutability":"view"},{"type":"function","name":"claimRefund","inputs":[],"outputs":[],"stateMutability":"nonpayable"},{"type":"function","name":"contribute","inputs":[{"name":"referralCode","type":"string","internalType":"string"}],"outputs":[],"stateMutability":"payable"},{"type":"function","name":"contributions","inputs":[{"name":"","type":"address","internalType":"address"}],"outputs":[{"name":"","type":"uint256","internalType":"uint256"}],"stateMutability":"view"},{"type":"function","name":"endTime","inputs":[],"outputs":[{"name":"","type":"uint256","internalType":"uint256"}],"stateMutability":"view"},{"type":"function","name":"finalize","inputs":[],"outputs":[],"stateMutability":"nonpayable"},{"type":"function","name":"finalized","inputs":[],"outputs":[{"name":"","type":"bool","internalType":"bool"}],"stateMutability":"view"},{"type":"function","name":"getContribution","inputs":[{"name":"participant","type":"address","internalType":"address"}],"outputs":[{"name":"","type":"uint256","internalType":"uint256"}],"stateMutability":"view"},{"type":"function","name":"getParticipantCount","inputs":[],"outputs":[{"name":"","type":"uint256","internalType":"uint256"}],"stateMutability":"view"},{"type":"function","name":"getRemainingTime","inputs":[],"outputs":[{"name":"","type":"uint256","internalType":"uint256"}],"stateMutability":"view"},{"type":"function","name":"getTotalRaised","inputs":[],"outputs":[{"name":"","type":"uint256","internalType":"uint256"}],"stateMutability":"view"},{"type":"function","name":"getTotalReferredByCode","inputs":[{"name":"referralCode","type":"string","internalType":"string"}],"outputs":[{"name":"","type":"uint256","internalType":"uint256"}],"stateMutability":"view"},{"type":"function","name":"owner","inputs":[],"outputs":[{"name":"","type":"address","internalType":"address"}],"stateMutability":"view"},{"type":"function","name":"participantCount","inputs":[],"outputs":[{"name":"","type":"uint256","internalType":"uint256"}],"stateMutability":"view"},{"type":"function","name":"referralContributions","inputs":[{"name":"","type":"string","internalType":"string"}],"outputs":[{"name":"","type":"uint256","internalType":"uint256"}],"stateMutability":"view"},{"type":"function","name":"referralOwners","inputs":[{"name":"","type":"string","internalType":"string"}],"outputs":[{"name":"","type":"address","internalType":"address"}],"stateMutability":"view"},{"type":"function","name":"softCapReached","inputs":[],"outputs":[{"name":"","type":"bool","internalType":"bool"}],"stateMutability":"view"},{"type":"function","name":"startTime","inputs":[],"outputs":[{"name":"","type":"uint256","internalType":"uint256"}],"stateMutability":"view"},{"type":"function","name":"totalRaised","inputs":[],"outputs":[{"name":"","type":"uint256","internalType":"uint256"}],"stateMutability":"view"},{"type":"function","name":"withdrawFunds","inputs":[{"name":"recipient","type":"address","internalType":"address"}],"outputs":[],"stateMutability":"nonpayable"},{"type":"event","name":"Contribution","inputs":[{"name":"contributor","type":"address","indexed":true,"internalType":"address"},{"name":"amount","type":"uint256","indexed":false,"internalType":"uint256"},{"name":"referralCode","type":"string","indexed":false,"internalType":"string"}],"anonymous":false},{"type":"event","name":"Finalized","inputs":[{"name":"totalRaised","type":"uint256","indexed":false,"internalType":"uint256"}],"anonymous":false},{"type":"event","name":"FundsWithdrawn","inputs":[{"name":"recipient","type":"address","indexed":true,"internalType":"address"},{"name":"amount","type":"uint256","indexed":false,"internalType":"uint256"}],"anonymous":false},{"type":"event","name":"Refund","inputs":[{"name":"contributor","type":"address","indexed":true,"internalType":"address"},{"name":"amount","type":"uint256","indexed":false,"internalType":"uint256"}],"anonymous":false},{"type":"error","name":"CannotUseOwnReferralCode","inputs":[]},{"type":"error","name":"ContributionExceedsLimit","inputs":[]},{"type":"error","name":"ContributionTooLow","inputs":[]},{"type":"error","name":"HardCapReached","inputs":[]},{"type":"error","name":"InvalidRecipient","inputs":[]},{"type":"error","name":"NoContributionToRefund","inputs":[]},{"type":"error","name":"NotContractOwner","inputs":[]},{"type":"error","name":"RecipientInterfaceNotSupported","inputs":[]},{"type":"error","name":"ReentrancyGuardReentrantCall","inputs":[]},{"type":"error","name":"SaleEnded","inputs":[]},{"type":"error","name":"SaleNotActive","inputs":[]},{"type":"error","name":"SoftCapNotReached","inputs":[]}],"bytecode":{"object":"0x608060405242600255636778fd4060035534801561001c57600080fd5b506001600081905580546001600160a01b03191633179055610d48806100436000396000f3fe6080604052600436106101405760003560e01c806378e97925116100b6578063ad6057291161006f578063ad605729146103b1578063b3f05b97146103c6578063b5545a3c146103e0578063b652dc2f146103f5578063c5c4744c14610412578063efb98bcf1461042857600080fd5b806378e97925146102b95780638da5cb5b146102cf57806394d95f8f146103075780639d5ddafe146103235780639f5502931461035b578063aa48ed8f1461037057600080fd5b80633a03171c116101085780633a03171c1461020957806340650c911461022657806342e94c90146102425780634bb278f31461026f5780635c43217b1461028657806368742da61461029957600080fd5b806321eff7fc146101455780632b9edee91461018e5780633197cbb6146101bd578063354fd211146101d3578063362f04c0146101f3575b600080fd5b34801561015157600080fd5b5061017b610160366004610b43565b6001600160a01b031660009081526007602052604090205490565b6040519081526020015b60405180910390f35b34801561019a57600080fd5b506006546101ad90610100900460ff1681565b6040519015158152602001610185565b3480156101c957600080fd5b5061017b60035481565b3480156101df57600080fd5b5061017b6101ee366004610b89565b61043d565b3480156101ff57600080fd5b5061017b60055481565b34801561021557600080fd5b5061017b6825f273933db570000081565b34801561023257600080fd5b5061017b6703782dace9d9000081565b34801561024e57600080fd5b5061017b61025d366004610b43565b60076020526000908152604090205481565b34801561027b57600080fd5b50610284610465565b005b610284610294366004610b89565b610516565b3480156102a557600080fd5b506102846102b4366004610b43565b6107d3565b3480156102c557600080fd5b5061017b60025481565b3480156102db57600080fd5b506001546102ef906001600160a01b031681565b6040516001600160a01b039091168152602001610185565b34801561031357600080fd5b5061017b674563918244f4000081565b34801561032f57600080fd5b5061017b61033e366004610b89565b805160208183018101805160098252928201919093012091525481565b34801561036757600080fd5b5060045461017b565b34801561037c57600080fd5b506102ef61038b366004610b89565b8051602081830181018051600a825292820191909301209152546001600160a01b031681565b3480156103bd57600080fd5b5060055461017b565b3480156103d257600080fd5b506006546101ad9060ff1681565b3480156103ec57600080fd5b5061028461095f565b34801561040157600080fd5b5061017b680f2dc7d47f1560000081565b34801561041e57600080fd5b5061017b60045481565b34801561043457600080fd5b5061017b610a79565b600060098260405161044f9190610c5e565b9081526020016040518091039020549050919050565b6001546001600160a01b031633146104905760405163bfcafd3760e01b815260040160405180910390fd5b60035442111580156104ac57506825f273933db5700000600454105b156104ca5760405163b7b2409760e01b815260040160405180910390fd5b6006805460ff191660011790556004546040517f839cf22e1ba87ce2f5b9bbf46cf0175a09eed52febdfaac8852478e68203c7639161050c9190815260200190565b60405180910390a1565b6002544210156105395760405163b7b2409760e01b815260040160405180910390fd5b60035442111561055c57604051630bd8a3eb60e01b815260040160405180910390fd5b6825f273933db57000006004541061058757604051634bc461a160e11b815260040160405180910390fd5b6703782dace9d900003410156105b057604051636c7591b560e11b815260040160405180910390fd5b674563918244f400003411156105d95760405163022943c360e01b815260040160405180910390fd5b6825f273933db5700000346004546105f19190610c90565b111561061057604051634bc461a160e11b815260040160405180910390fd5b33600090815260076020526040902054156106675760405162461bcd60e51b8152602060048201526013602482015272105b1c9958591e4818dbdb9d1c9a589d5d1959606a1b604482015260640160405180910390fd5b8051156106f0576000600a826040516106809190610c5e565b908152604051908190036020019020546001600160a01b031690503381036106bb576040516375d757b560e11b815260040160405180910390fd5b346009836040516106cc9190610c5e565b908152602001604051809103902060008282546106e99190610c90565b9091555050505b336000908152600860205260408120805460ff191660019081179091556005805491929091610720908490610c90565b90915550503360009081526007602052604081203490819055600480549192909161074c908490610c90565b9091555050600454680f2dc7d47f1560000011610773576006805461ff0019166101001790555b336001600160a01b03167fd7604d21739444d3bc2717034eb90601f2cf2e5987c372af627911341e6ae62534836040516107ae929190610ca3565b60405180910390a26825f273933db5700000600454106107d0576107d0610465565b50565b6001546001600160a01b031633146107fe5760405163bfcafd3760e01b815260040160405180910390fd5b610806610a9d565b60035442111580156108225750680f2dc7d47f15600000600454105b156108405760405163b7b2409760e01b815260040160405180910390fd5b600654610100900460ff1661086857604051632bdc91ad60e01b815260040160405180910390fd5b6001600160a01b03811661088f57604051634e46966960e11b815260040160405180910390fd5b61089881610ac7565b6108b557604051636082ad2d60e11b815260040160405180910390fd5b604051638827e09b60e01b81524760048201819052906001600160a01b03831690638827e09b90602401600060405180830381600087803b1580156108f957600080fd5b505af115801561090d573d6000803e3d6000fd5b50505050816001600160a01b03167feaff4b37086828766ad3268786972c0cd24259d4c87a80f9d3963a3c3d999b0d8260405161094c91815260200190565b60405180910390a2506107d06001600055565b610967610a9d565b60035442111580156109835750680f2dc7d47f15600000600454105b156109a15760405163b7b2409760e01b815260040160405180910390fd5b600654610100900460ff16156109ca57604051632bdc91ad60e01b815260040160405180910390fd5b33600090815260076020526040812054908190036109fb5760405163634b67f560e11b815260040160405180910390fd5b336000818152600760205260408082208290555183156108fc0291849190818181858888f19350505050158015610a36573d6000803e3d6000fd5b5060405181815233907fbb28353e4598c3b9199101a66e0989549b659a59a54d2c27fbb183f1932c8e6d9060200160405180910390a250610a776001600055565b565b60006003544210610a8a5750600090565b42600354610a989190610cdd565b905090565b600260005403610ac057604051633ee5aeb560e01b815260040160405180910390fd5b6002600055565b6040516301ffc9a760e01b8152638827e09b60e01b60048201526000906001600160a01b038316906301ffc9a790602401602060405180830381865afa925050508015610b31575060408051601f3d908101601f19168201909252610b2e91810190610cf0565b60015b610b3d57506000919050565b92915050565b600060208284031215610b5557600080fd5b81356001600160a01b0381168114610b6c57600080fd5b9392505050565b634e487b7160e01b600052604160045260246000fd5b600060208284031215610b9b57600080fd5b813567ffffffffffffffff80821115610bb357600080fd5b818401915084601f830112610bc757600080fd5b813581811115610bd957610bd9610b73565b604051601f8201601f19908116603f01168101908382118183101715610c0157610c01610b73565b81604052828152876020848701011115610c1a57600080fd5b826020860160208301376000928101602001929092525095945050505050565b60005b83811015610c55578181015183820152602001610c3d565b50506000910152565b60008251610c70818460208701610c3a565b9190910192915050565b634e487b7160e01b600052601160045260246000fd5b80820180821115610b3d57610b3d610c7a565b8281526040602082015260008251806040840152610cc8816060850160208701610c3a565b601f01601f1916919091016060019392505050565b81810381811115610b3d57610b3d610c7a565b600060208284031215610d0257600080fd5b81518015158114610b6c57600080fdfea26469706673582212203d5af08db6a4060689e09d1e8faee69191b6b59d0d62703aaf33c44a96a58c4864736f6c63430008170033","linkReferences":{}},"methodIdentifiers":{"HARD_CAP()":"3a03171c","MAX_CONTRIBUTION()":"94d95f8f","MIN_CONTRIBUTION()":"40650c91","SOFT_CAP()":"b652dc2f","claimRefund()":"b5545a3c","contribute(string)":"5c43217b","contributions(address)":"42e94c90","endTime()":"3197cbb6","finalize()":"4bb278f3","finalized()":"b3f05b97","getContribution(address)":"21eff7fc","getParticipantCount()":"ad605729","getRemainingTime()":"efb98bcf","getTotalRaised()":"9f550293","getTotalReferredByCode(string)":"354fd211","owner()":"8da5cb5b","participantCount()":"362f04c0","referralContributions(string)":"9d5ddafe","referralOwners(string)":"aa48ed8f","softCapReached()":"2b9edee9","startTime()":"78e97925","totalRaised()":"c5c4744c","withdrawFunds(address)":"68742da6"},"id":21}