{"abi":[{"type":"constructor","inputs":[],"stateMutability":"nonpayable"},{"type":"function","name":"HARD_CAP","inputs":[],"outputs":[{"name":"","type":"uint256","internalType":"uint256"}],"stateMutability":"view"},{"type":"function","name":"MAX_CONTRIBUTION","inputs":[],"outputs":[{"name":"","type":"uint256","internalType":"uint256"}],"stateMutability":"view"},{"type":"function","name":"MIN_CONTRIBUTION","inputs":[],"outputs":[{"name":"","type":"uint256","internalType":"uint256"}],"stateMutability":"view"},{"type":"function","name":"SOFT_CAP","inputs":[],"outputs":[{"name":"","type":"uint256","internalType":"uint256"}],"stateMutability":"view"},{"type":"function","name":"claimRefund","inputs":[],"outputs":[],"stateMutability":"nonpayable"},{"type":"function","name":"contribute","inputs":[{"name":"referralCode","type":"bytes32","internalType":"bytes32"}],"outputs":[],"stateMutability":"payable"},{"type":"function","name":"contributions","inputs":[{"name":"","type":"address","internalType":"address"}],"outputs":[{"name":"","type":"uint256","internalType":"uint256"}],"stateMutability":"view"},{"type":"function","name":"endTime","inputs":[],"outputs":[{"name":"","type":"uint256","internalType":"uint256"}],"stateMutability":"view"},{"type":"function","name":"finalize","inputs":[],"outputs":[],"stateMutability":"nonpayable"},{"type":"function","name":"finalized","inputs":[],"outputs":[{"name":"","type":"bool","internalType":"bool"}],"stateMutability":"view"},{"type":"function","name":"getContribution","inputs":[{"name":"participant","type":"address","internalType":"address"}],"outputs":[{"name":"","type":"uint256","internalType":"uint256"}],"stateMutability":"view"},{"type":"function","name":"getParticipantCount","inputs":[],"outputs":[{"name":"","type":"uint256","internalType":"uint256"}],"stateMutability":"view"},{"type":"function","name":"getReferralUserCount","inputs":[{"name":"referralCode","type":"bytes32","internalType":"bytes32"}],"outputs":[{"name":"","type":"uint256","internalType":"uint256"}],"stateMutability":"view"},{"type":"function","name":"getRemainingTime","inputs":[],"outputs":[{"name":"","type":"uint256","internalType":"uint256"}],"stateMutability":"view"},{"type":"function","name":"getTotalRaised","inputs":[],"outputs":[{"name":"","type":"uint256","internalType":"uint256"}],"stateMutability":"view"},{"type":"function","name":"getTotalReferredByCode","inputs":[{"name":"referralCode","type":"bytes32","internalType":"bytes32"}],"outputs":[{"name":"","type":"uint256","internalType":"uint256"}],"stateMutability":"view"},{"type":"function","name":"owner","inputs":[],"outputs":[{"name":"","type":"address","internalType":"address"}],"stateMutability":"view"},{"type":"function","name":"participantCount","inputs":[],"outputs":[{"name":"","type":"uint256","internalType":"uint256"}],"stateMutability":"view"},{"type":"function","name":"referralContributions","inputs":[{"name":"","type":"bytes32","internalType":"bytes32"}],"outputs":[{"name":"","type":"uint256","internalType":"uint256"}],"stateMutability":"view"},{"type":"function","name":"referralOwners","inputs":[{"name":"","type":"bytes32","internalType":"bytes32"}],"outputs":[{"name":"","type":"address","internalType":"address"}],"stateMutability":"view"},{"type":"function","name":"referralUserCount","inputs":[{"name":"","type":"bytes32","internalType":"bytes32"}],"outputs":[{"name":"","type":"uint256","internalType":"uint256"}],"stateMutability":"view"},{"type":"function","name":"softCapReached","inputs":[],"outputs":[{"name":"","type":"bool","internalType":"bool"}],"stateMutability":"view"},{"type":"function","name":"startTime","inputs":[],"outputs":[{"name":"","type":"uint256","internalType":"uint256"}],"stateMutability":"view"},{"type":"function","name":"totalRaised","inputs":[],"outputs":[{"name":"","type":"uint256","internalType":"uint256"}],"stateMutability":"view"},{"type":"function","name":"withdrawFunds","inputs":[{"name":"recipient","type":"address","internalType":"address"}],"outputs":[],"stateMutability":"nonpayable"},{"type":"event","name":"Contribution","inputs":[{"name":"contributor","type":"address","indexed":true,"internalType":"address"},{"name":"amount","type":"uint256","indexed":false,"internalType":"uint256"},{"name":"referralCode","type":"bytes32","indexed":false,"internalType":"bytes32"}],"anonymous":false},{"type":"event","name":"Finalized","inputs":[{"name":"totalRaised","type":"uint256","indexed":false,"internalType":"uint256"}],"anonymous":false},{"type":"event","name":"FundsWithdrawn","inputs":[{"name":"recipient","type":"address","indexed":true,"internalType":"address"},{"name":"amount","type":"uint256","indexed":false,"internalType":"uint256"}],"anonymous":false},{"type":"event","name":"Refund","inputs":[{"name":"contributor","type":"address","indexed":true,"internalType":"address"},{"name":"amount","type":"uint256","indexed":false,"internalType":"uint256"}],"anonymous":false},{"type":"error","name":"CannotUseOwnReferralCode","inputs":[]},{"type":"error","name":"ContributionExceedsLimit","inputs":[]},{"type":"error","name":"ContributionTooLow","inputs":[]},{"type":"error","name":"HardCapReached","inputs":[]},{"type":"error","name":"InvalidRecipient","inputs":[]},{"type":"error","name":"NoContributionToRefund","inputs":[]},{"type":"error","name":"NotContractOwner","inputs":[]},{"type":"error","name":"RecipientInterfaceNotSupported","inputs":[]},{"type":"error","name":"ReentrancyGuardReentrantCall","inputs":[]},{"type":"error","name":"SaleEnded","inputs":[]},{"type":"error","name":"SaleNotActive","inputs":[]},{"type":"error","name":"SoftCapNotReached","inputs":[]}],"bytecode":{"object":"0x608060405242600255636778fd4060035534801561001c57600080fd5b506001600081905580546001600160a01b03191633179055610c65806100436000396000f3fe6080604052600436106101665760003560e01c80638da5cb5b116100d1578063b3f05b971161008a578063c5c4744c11610064578063c5c4744c1461042f578063d9b28bad14610445578063dd2720e514610472578063efb98bcf1461049f57600080fd5b8063b3f05b97146103e3578063b5545a3c146103fd578063b652dc2f1461041257600080fd5b80638da5cb5b1461032357806394d95f8f146103435780639f5502931461035f5780639f5bba5814610374578063a5727e25146103a1578063ad605729146103ce57600080fd5b806342e94c901161012357806342e94c90146102485780634bb278f31461027557806368742da61461028c57806378e97925146102ac57806382539810146102c257806389cc81c11461031057600080fd5b806321eff7fc1461016b5780632b9edee9146101b45780633197cbb6146101e3578063362f04c0146101f95780633a03171c1461020f57806340650c911461022c575b600080fd5b34801561017757600080fd5b506101a1610186366004610b88565b6001600160a01b031660009081526007602052604090205490565b6040519081526020015b60405180910390f35b3480156101c057600080fd5b506006546101d390610100900460ff1681565b60405190151581526020016101ab565b3480156101ef57600080fd5b506101a160035481565b34801561020557600080fd5b506101a160055481565b34801561021b57600080fd5b506101a16825f273933db570000081565b34801561023857600080fd5b506101a16703782dace9d9000081565b34801561025457600080fd5b506101a1610263366004610b88565b60076020526000908152604090205481565b34801561028157600080fd5b5061028a6104b4565b005b34801561029857600080fd5b5061028a6102a7366004610b88565b610565565b3480156102b857600080fd5b506101a160025481565b3480156102ce57600080fd5b506102f86102dd366004610bb8565b600a602052600090815260409020546001600160a01b031681565b6040516001600160a01b0390911681526020016101ab565b61028a61031e366004610bb8565b6106f4565b34801561032f57600080fd5b506001546102f8906001600160a01b031681565b34801561034f57600080fd5b506101a1674563918244f4000081565b34801561036b57600080fd5b506004546101a1565b34801561038057600080fd5b506101a161038f366004610bb8565b6000908152600b602052604090205490565b3480156103ad57600080fd5b506101a16103bc366004610bb8565b60009081526009602052604090205490565b3480156103da57600080fd5b506005546101a1565b3480156103ef57600080fd5b506006546101d39060ff1681565b34801561040957600080fd5b5061028a6109a4565b34801561041e57600080fd5b506101a1680f2dc7d47f1560000081565b34801561043b57600080fd5b506101a160045481565b34801561045157600080fd5b506101a1610460366004610bb8565b60096020526000908152604090205481565b34801561047e57600080fd5b506101a161048d366004610bb8565b600b6020526000908152604090205481565b3480156104ab57600080fd5b506101a1610abe565b6001546001600160a01b031633146104df5760405163bfcafd3760e01b815260040160405180910390fd5b60035442111580156104fb57506825f273933db5700000600454105b156105195760405163b7b2409760e01b815260040160405180910390fd5b6006805460ff191660011790556004546040517f839cf22e1ba87ce2f5b9bbf46cf0175a09eed52febdfaac8852478e68203c7639161055b9190815260200190565b60405180910390a1565b6001546001600160a01b031633146105905760405163bfcafd3760e01b815260040160405180910390fd5b610598610ae2565b60035442111580156105b45750680f2dc7d47f15600000600454105b156105d25760405163b7b2409760e01b815260040160405180910390fd5b600654610100900460ff166105fa57604051632bdc91ad60e01b815260040160405180910390fd5b6001600160a01b03811661062157604051634e46966960e11b815260040160405180910390fd5b61062a81610b0c565b61064757604051636082ad2d60e11b815260040160405180910390fd5b604051638827e09b60e01b81524760048201819052906001600160a01b03831690638827e09b90602401600060405180830381600087803b15801561068b57600080fd5b505af115801561069f573d6000803e3d6000fd5b50505050816001600160a01b03167feaff4b37086828766ad3268786972c0cd24259d4c87a80f9d3963a3c3d999b0d826040516106de91815260200190565b60405180910390a2506106f16001600055565b50565b6002544210156107175760405163b7b2409760e01b815260040160405180910390fd5b60035442111561073a57604051630bd8a3eb60e01b815260040160405180910390fd5b6825f273933db57000006004541061076557604051634bc461a160e11b815260040160405180910390fd5b6703782dace9d9000034101561078e57604051636c7591b560e11b815260040160405180910390fd5b674563918244f400003411156107b75760405163022943c360e01b815260040160405180910390fd5b6825f273933db5700000346004546107cf9190610be7565b11156107ee57604051634bc461a160e11b815260040160405180910390fd5b33600090815260076020526040902054156108455760405162461bcd60e51b8152602060048201526013602482015272105b1c9958591e4818dbdb9d1c9a589d5d1959606a1b604482015260640160405180910390fd5b80156108cc576000818152600a60205260409020546001600160a01b0316338103610883576040516375d757b560e11b815260040160405180910390fd5b600082815260096020526040812080543492906108a1908490610be7565b90915550506000828152600b602052604081208054600192906108c5908490610be7565b9091555050505b336000908152600860205260408120805460ff1916600190811790915560058054919290916108fc908490610be7565b909155505033600090815260076020526040812034908190556004805491929091610928908490610be7565b9091555050600454680f2dc7d47f156000001161094f576006805461ff0019166101001790555b604080513481526020810183905233917f37d51aa19d01ec14316772b09ba06058b233403c60b7e9e8d9986c34391bec16910160405180910390a26825f273933db5700000600454106106f1576106f16104b4565b6109ac610ae2565b60035442111580156109c85750680f2dc7d47f15600000600454105b156109e65760405163b7b2409760e01b815260040160405180910390fd5b600654610100900460ff1615610a0f57604051632bdc91ad60e01b815260040160405180910390fd5b3360009081526007602052604081205490819003610a405760405163634b67f560e11b815260040160405180910390fd5b336000818152600760205260408082208290555183156108fc0291849190818181858888f19350505050158015610a7b573d6000803e3d6000fd5b5060405181815233907fbb28353e4598c3b9199101a66e0989549b659a59a54d2c27fbb183f1932c8e6d9060200160405180910390a250610abc6001600055565b565b60006003544210610acf5750600090565b42600354610add9190610bfa565b905090565b600260005403610b0557604051633ee5aeb560e01b815260040160405180910390fd5b6002600055565b6040516301ffc9a760e01b8152638827e09b60e01b60048201526000906001600160a01b038316906301ffc9a790602401602060405180830381865afa925050508015610b76575060408051601f3d908101601f19168201909252610b7391810190610c0d565b60015b610b8257506000919050565b92915050565b600060208284031215610b9a57600080fd5b81356001600160a01b0381168114610bb157600080fd5b9392505050565b600060208284031215610bca57600080fd5b5035919050565b634e487b7160e01b600052601160045260246000fd5b80820180821115610b8257610b82610bd1565b81810381811115610b8257610b82610bd1565b600060208284031215610c1f57600080fd5b81518015158114610bb157600080fdfea2646970667358221220c03bcbcb485301c3be10f9f7cbb9a8d2847401798a0bb46b44a421fe82691eee64736f6c63430008170033","linkReferences":{}},"methodIdentifiers":{"HARD_CAP()":"3a03171c","MAX_CONTRIBUTION()":"94d95f8f","MIN_CONTRIBUTION()":"40650c91","SOFT_CAP()":"b652dc2f","claimRefund()":"b5545a3c","contribute(bytes32)":"89cc81c1","contributions(address)":"42e94c90","endTime()":"3197cbb6","finalize()":"4bb278f3","finalized()":"b3f05b97","getContribution(address)":"21eff7fc","getParticipantCount()":"ad605729","getReferralUserCount(bytes32)":"9f5bba58","getRemainingTime()":"efb98bcf","getTotalRaised()":"9f550293","getTotalReferredByCode(bytes32)":"a5727e25","owner()":"8da5cb5b","participantCount()":"362f04c0","referralContributions(bytes32)":"d9b28bad","referralOwners(bytes32)":"82539810","referralUserCount(bytes32)":"dd2720e5","softCapReached()":"2b9edee9","startTime()":"78e97925","totalRaised()":"c5c4744c","withdrawFunds(address)":"68742da6"},"id":21}